{
	"data": {
		"bytecode": {
			"linkReferences": {},
			"object": "6080604052600180546001600160a01b031990811673ba2ae424d960c26247dd6c32edc70b295c744c43179091556002805490911673bb4cdb9cbd36b01bd1cbaebf2de08d9173bc095c1790556ec097ce7bc90715b34b9f1000000000600d55610e10600e55670de0b6b3a7640000600f5534801561007d57600080fd5b5060405161115138038061115183398101604081905261009c91610121565b6001600160a01b0382166100c4577310ed43c718714eb63d5aa57b78b54704e256024e6100c6565b815b600380546001600160a01b039283166001600160a01b031991821617909155600080548216331790556004805493909216921691909117905550610153565b80516001600160a01b038116811461011c57600080fd5b919050565b60008060408385031215610133578182fd5b61013c83610105565b915061014a60208401610105565b90509250929050565b610fef806101626000396000f3fe6080604052600436106100dd5760003560e01c8063ce7c2ac21161007f578063efca2eed11610059578063efca2eed146101fa578063f0fc6bca1461020f578063ffb2c47914610224578063ffd49c8414610244576100dd565b8063ce7c2ac2146101ae578063d0e30db0146101dd578063e2d2e219146101e5576100dd565b80632d48e896116100bb5780632d48e8961461014f5780633a98ef391461016f5780634fab0ae814610184578063997664d714610199576100dd565b806311ce023d146100e257806314b6ca961461010d57806328fd31981461012f575b600080fd5b3480156100ee57600080fd5b506100f7610259565b6040516101049190610efb565b60405180910390f35b34801561011957600080fd5b5061012d610128366004610dcb565b61025f565b005b34801561013b57600080fd5b506100f761014a366004610db1565b610384565b34801561015b57600080fd5b5061012d61016a366004610e44565b610410565b34801561017b57600080fd5b506100f7610432565b34801561019057600080fd5b506100f7610438565b3480156101a557600080fd5b506100f761043e565b3480156101ba57600080fd5b506101ce6101c9366004610db1565b610444565b60405161010493929190610f04565b61012d610465565b3480156101f157600080fd5b506100f76106d8565b34801561020657600080fd5b506100f76106de565b34801561021b57600080fd5b5061012d6106e4565b34801561023057600080fd5b5061012d61023f366004610e14565b6106ef565b34801561025057600080fd5b506100f761080e565b600d5481565b6000546001600160a01b0316331461027657600080fd5b6001600160a01b0382166000908152600860205260409020541561029d5761029d82610814565b6000811180156102c357506001600160a01b038216600090815260086020526040902054155b156102d6576102d18261093f565b610309565b801580156102fb57506001600160a01b03821660009081526008602052604090205415155b1561030957610309826109a0565b6001600160a01b03821660009081526008602052604090205460095461033a91839161033491610aed565b90610b00565b6009556001600160a01b038216600090815260086020526040902081905561036181610b0c565b6001600160a01b0390921660009081526008602052604090206001019190915550565b6001600160a01b0381166000908152600860205260408120546103a95750600061040b565b6001600160a01b0382166000908152600860205260408120546103cb90610b0c565b6001600160a01b0384166000908152600860205260409020600101549091508082116103fc5760009250505061040b565b6104068282610aed565b925050505b919050565b6000546001600160a01b0316331461042757600080fd5b600e91909155600f55565b60095481565b600f5481565b600a5481565b60086020526000908152604090208054600182015460029092015490919083565b6000546001600160a01b0316331461047c57600080fd5b6001546040516370a0823160e01b81526000916001600160a01b0316906370a08231906104ad903090600401610e65565b60206040518083038186803b1580156104c557600080fd5b505afa1580156104d9573d6000803e3d6000fd5b505050506040513d601f19601f820116820180604052508101906104fd9190610e2c565b6040805160028082526060820183529293506000929091602083019080368337505060025482519293506001600160a01b03169183915060009061055157634e487b7160e01b600052603260045260246000fd5b6001600160a01b039283166020918202929092010152600180548351921691839190811061058f57634e487b7160e01b600052603260045260246000fd5b6001600160a01b03928316602091820292909201015260035460405163b6f9de9560e01b815291169063b6f9de959034906105d590600090869030904290600401610e92565b6000604051808303818588803b1580156105ee57600080fd5b505af1158015610602573d6000803e3d6000fd5b50506001546040516370a0823160e01b81526000945061069693508692506001600160a01b03909116906370a0823190610640903090600401610e65565b60206040518083038186803b15801561065857600080fd5b505afa15801561066c573d6000803e3d6000fd5b505050506040513d601f19601f820116820180604052508101906106909190610e2c565b90610aed565b600a549091506106a69082610b00565b600a55600954600d546106d0916106c7916106c19085610b2f565b90610b3b565b600c5490610b00565b600c55505050565b600c5481565b600b5481565b6106ed33610814565b565b6000546001600160a01b0316331461070657600080fd5b60055480610714575061080b565b6000805a905060005b848310801561072b57508381105b1561080657836010541061073f5760006010555b61077f60056010548154811061076557634e487b7160e01b600052603260045260246000fd5b6000918252602090912001546001600160a01b0316610b47565b156107c4576107c46005601054815481106107aa57634e487b7160e01b600052603260045260246000fd5b6000918252602090912001546001600160a01b0316610814565b6107d96107d25a8490610aed565b8490610b00565b92505a6010805491935060006107ee83610f88565b919050555080806107fe90610f88565b91505061071d565b505050505b50565b600e5481565b6001600160a01b0381166000908152600860205260409020546108365761080b565b600061084182610384565b9050801561093b57600b546108569082610b00565b600b5560015460405163a9059cbb60e01b81526001600160a01b039091169063a9059cbb9061088b9085908590600401610e79565b602060405180830381600087803b1580156108a557600080fd5b505af11580156108b9573d6000803e3d6000fd5b505050506040513d601f19601f820116820180604052508101906108dd9190610df4565b506001600160a01b038216600090815260076020908152604080832042905560089091529020600201546109119082610b00565b6001600160a01b038316600090815260086020526040902060028101919091555461036190610b0c565b5050565b600580546001600160a01b039092166000818152600660205260408120849055600184018355919091527f036b6384b5eca791c62761152d0c79bb0604c104a5fb6f4eb0703f3154bb3db090910180546001600160a01b0319169091179055565b600580546109b090600190610f71565b815481106109ce57634e487b7160e01b600052603260045260246000fd5b60009182526020808320909101546001600160a01b0384811684526006909252604090922054600580549290931692918110610a1a57634e487b7160e01b600052603260045260246000fd5b600091825260208083209190910180546001600160a01b0319166001600160a01b03948516179055918316815260069182905260408120546005805491939291610a6690600190610f71565b81548110610a8457634e487b7160e01b600052603260045260246000fd5b60009182526020808320909101546001600160a01b031683528201929092526040019020556005805480610ac857634e487b7160e01b600052603160045260246000fd5b600082815260209020810160001990810180546001600160a01b031916905501905550565b6000610af98284610f71565b9392505050565b6000610af98284610f1a565b6000610b29600d546106c1600c5485610b2f90919063ffffffff16565b92915050565b6000610af98284610f52565b6000610af98284610f32565b600e546001600160a01b03821660009081526007602052604081205490914291610b719190610f1a565b108015610b875750600f54610b8583610384565b115b8015610b2957506004805460408051632846b95160e01b815290516001600160a01b0390921692632846b951928282019260209290829003018186803b158015610bd057600080fd5b505afa158015610be4573d6000803e3d6000fd5b505050506040513d601f19601f82011682018060405250810190610c089190610df4565b1580610b2957506004805460408051632846b95160e01b815290516001600160a01b0390921692632846b951928282019260209290829003018186803b158015610c5157600080fd5b505afa158015610c65573d6000803e3d6000fd5b505050506040513d601f19601f82011682018060405250810190610c899190610df4565b8015610b29575060048054604080516323c53ee360e21b815290516001600160a01b0390921692638f14fb8c928282019260209290829003018186803b158015610cd257600080fd5b505afa158015610ce6573d6000803e3d6000fd5b505050506040513d601f19601f82011682018060405250810190610d0a9190610e2c565b600480546040516330355ba960e11b81526001600160a01b039091169163606ab75291610d3991879101610e65565b60206040518083038186803b158015610d5157600080fd5b505afa158015610d65573d6000803e3d6000fd5b505050506040513d601f19601f82011682018060405250810190610d899190610e2c565b610d939042610f71565b1092915050565b80356001600160a01b038116811461040b57600080fd5b600060208284031215610dc2578081fd5b610af982610d9a565b60008060408385031215610ddd578081fd5b610de683610d9a565b946020939093013593505050565b600060208284031215610e05578081fd5b81518015158114610af9578182fd5b600060208284031215610e25578081fd5b5035919050565b600060208284031215610e3d578081fd5b5051919050565b60008060408385031215610e56578182fd5b50508035926020909101359150565b6001600160a01b0391909116815260200190565b6001600160a01b03929092168252602082015260400190565b600060808201868352602060808185015281875180845260a0860191508289019350845b81811015610edb5784516001600160a01b031683529383019391830191600101610eb6565b50506001600160a01b039690961660408501525050506060015292915050565b90815260200190565b9283526020830191909152604082015260600190565b60008219821115610f2d57610f2d610fa3565b500190565b600082610f4d57634e487b7160e01b81526012600452602481fd5b500490565b6000816000190483118215151615610f6c57610f6c610fa3565b500290565b600082821015610f8357610f83610fa3565b500390565b6000600019821415610f9c57610f9c610fa3565b5060010190565b634e487b7160e01b600052601160045260246000fdfea264697066735822122013035eff56b38e53c520ebbb1466abb83251a4f9aabd612f99b8c5107d8f012664736f6c63430008000033",
			"opcodes": "PUSH1 0x80 PUSH1 0x40 MSTORE PUSH1 0x1 DUP1 SLOAD PUSH1 0x1 PUSH1 0x1 PUSH1 0xA0 SHL SUB NOT SWAP1 DUP2 AND PUSH20 0xBA2AE424D960C26247DD6C32EDC70B295C744C43 OR SWAP1 SWAP2 SSTORE PUSH1 0x2 DUP1 SLOAD SWAP1 SWAP2 AND PUSH20 0xBB4CDB9CBD36B01BD1CBAEBF2DE08D9173BC095C OR SWAP1 SSTORE PUSH15 0xC097CE7BC90715B34B9F1000000000 PUSH1 0xD SSTORE PUSH2 0xE10 PUSH1 0xE SSTORE PUSH8 0xDE0B6B3A7640000 PUSH1 0xF SSTORE CALLVALUE DUP1 ISZERO PUSH2 0x7D JUMPI PUSH1 0x0 DUP1 REVERT JUMPDEST POP PUSH1 0x40 MLOAD PUSH2 0x1151 CODESIZE SUB DUP1 PUSH2 0x1151 DUP4 CODECOPY DUP2 ADD PUSH1 0x40 DUP2 SWAP1 MSTORE PUSH2 0x9C SWAP2 PUSH2 0x121 JUMP JUMPDEST PUSH1 0x1 PUSH1 0x1 PUSH1 0xA0 SHL SUB DUP3 AND PUSH2 0xC4 JUMPI PUSH20 0x10ED43C718714EB63D5AA57B78B54704E256024E PUSH2 0xC6 JUMP JUMPDEST DUP2 JUMPDEST PUSH1 0x3 DUP1 SLOAD PUSH1 0x1 PUSH1 0x1 PUSH1 0xA0 SHL SUB SWAP3 DUP4 AND PUSH1 0x1 PUSH1 0x1 PUSH1 0xA0 SHL SUB NOT SWAP2 DUP3 AND OR SWAP1 SWAP2 SSTORE PUSH1 0x0 DUP1 SLOAD DUP3 AND CALLER OR SWAP1 SSTORE PUSH1 0x4 DUP1 SLOAD SWAP4 SWAP1 SWAP3 AND SWAP3 AND SWAP2 SWAP1 SWAP2 OR SWAP1 SSTORE POP PUSH2 0x153 JUMP JUMPDEST DUP1 MLOAD PUSH1 0x1 PUSH1 0x1 PUSH1 0xA0 SHL SUB DUP2 AND DUP2 EQ PUSH2 0x11C JUMPI PUSH1 0x0 DUP1 REVERT JUMPDEST SWAP2 SWAP1 POP JUMP JUMPDEST PUSH1 0x0 DUP1 PUSH1 0x40 DUP4 DUP6 SUB SLT ISZERO PUSH2 0x133 JUMPI DUP2 DUP3 REVERT JUMPDEST PUSH2 0x13C DUP4 PUSH2 0x105 JUMP JUMPDEST SWAP2 POP PUSH2 0x14A PUSH1 0x20 DUP5 ADD PUSH2 0x105 JUMP JUMPDEST SWAP1 POP SWAP3 POP SWAP3 SWAP1 POP JUMP JUMPDEST PUSH2 0xFEF DUP1 PUSH2 0x162 PUSH1 0x0 CODECOPY PUSH1 0x0 RETURN INVALID PUSH1 0x80 PUSH1 0x40 MSTORE PUSH1 0x4 CALLDATASIZE LT PUSH2 0xDD JUMPI PUSH1 0x0 CALLDATALOAD PUSH1 0xE0 SHR DUP1 PUSH4 0xCE7C2AC2 GT PUSH2 0x7F JUMPI DUP1 PUSH4 0xEFCA2EED GT PUSH2 0x59 JUMPI DUP1 PUSH4 0xEFCA2EED EQ PUSH2 0x1FA JUMPI DUP1 PUSH4 0xF0FC6BCA EQ PUSH2 0x20F JUMPI DUP1 PUSH4 0xFFB2C479 EQ PUSH2 0x224 JUMPI DUP1 PUSH4 0xFFD49C84 EQ PUSH2 0x244 JUMPI PUSH2 0xDD JUMP JUMPDEST DUP1 PUSH4 0xCE7C2AC2 EQ PUSH2 0x1AE JUMPI DUP1 PUSH4 0xD0E30DB0 EQ PUSH2 0x1DD JUMPI DUP1 PUSH4 0xE2D2E219 EQ PUSH2 0x1E5 JUMPI PUSH2 0xDD JUMP JUMPDEST DUP1 PUSH4 0x2D48E896 GT PUSH2 0xBB JUMPI DUP1 PUSH4 0x2D48E896 EQ PUSH2 0x14F JUMPI DUP1 PUSH4 0x3A98EF39 EQ PUSH2 0x16F JUMPI DUP1 PUSH4 0x4FAB0AE8 EQ PUSH2 0x184 JUMPI DUP1 PUSH4 0x997664D7 EQ PUSH2 0x199 JUMPI PUSH2 0xDD JUMP JUMPDEST DUP1 PUSH4 0x11CE023D EQ PUSH2 0xE2 JUMPI DUP1 PUSH4 0x14B6CA96 EQ PUSH2 0x10D JUMPI DUP1 PUSH4 0x28FD3198 EQ PUSH2 0x12F JUMPI JUMPDEST PUSH1 0x0 DUP1 REVERT JUMPDEST CALLVALUE DUP1 ISZERO PUSH2 0xEE JUMPI PUSH1 0x0 DUP1 REVERT JUMPDEST POP PUSH2 0xF7 PUSH2 0x259 JUMP JUMPDEST PUSH1 0x40 MLOAD PUSH2 0x104 SWAP2 SWAP1 PUSH2 0xEFB JUMP JUMPDEST PUSH1 0x40 MLOAD DUP1 SWAP2 SUB SWAP1 RETURN JUMPDEST CALLVALUE DUP1 ISZERO PUSH2 0x119 JUMPI PUSH1 0x0 DUP1 REVERT JUMPDEST POP PUSH2 0x12D PUSH2 0x128 CALLDATASIZE PUSH1 0x4 PUSH2 0xDCB JUMP JUMPDEST PUSH2 0x25F JUMP JUMPDEST STOP JUMPDEST CALLVALUE DUP1 ISZERO PUSH2 0x13B JUMPI PUSH1 0x0 DUP1 REVERT JUMPDEST POP PUSH2 0xF7 PUSH2 0x14A CALLDATASIZE PUSH1 0x4 PUSH2 0xDB1 JUMP JUMPDEST PUSH2 0x384 JUMP JUMPDEST CALLVALUE DUP1 ISZERO PUSH2 0x15B JUMPI PUSH1 0x0 DUP1 REVERT JUMPDEST POP PUSH2 0x12D PUSH2 0x16A CALLDATASIZE PUSH1 0x4 PUSH2 0xE44 JUMP JUMPDEST PUSH2 0x410 JUMP JUMPDEST CALLVALUE DUP1 ISZERO PUSH2 0x17B JUMPI PUSH1 0x0 DUP1 REVERT JUMPDEST POP PUSH2 0xF7 PUSH2 0x432 JUMP JUMPDEST CALLVALUE DUP1 ISZERO PUSH2 0x190 JUMPI PUSH1 0x0 DUP1 REVERT JUMPDEST POP PUSH2 0xF7 PUSH2 0x438 JUMP JUMPDEST CALLVALUE DUP1 ISZERO PUSH2 0x1A5 JUMPI PUSH1 0x0 DUP1 REVERT JUMPDEST POP PUSH2 0xF7 PUSH2 0x43E JUMP JUMPDEST CALLVALUE DUP1 ISZERO PUSH2 0x1BA JUMPI PUSH1 0x0 DUP1 REVERT JUMPDEST POP PUSH2 0x1CE PUSH2 0x1C9 CALLDATASIZE PUSH1 0x4 PUSH2 0xDB1 JUMP JUMPDEST PUSH2 0x444 JUMP JUMPDEST PUSH1 0x40 MLOAD PUSH2 0x104 SWAP4 SWAP3 SWAP2 SWAP1 PUSH2 0xF04 JUMP JUMPDEST PUSH2 0x12D PUSH2 0x465 JUMP JUMPDEST CALLVALUE DUP1 ISZERO PUSH2 0x1F1 JUMPI PUSH1 0x0 DUP1 REVERT JUMPDEST POP PUSH2 0xF7 PUSH2 0x6D8 JUMP JUMPDEST CALLVALUE DUP1 ISZERO PUSH2 0x206 JUMPI PUSH1 0x0 DUP1 REVERT JUMPDEST POP PUSH2 0xF7 PUSH2 0x6DE JUMP JUMPDEST CALLVALUE DUP1 ISZERO PUSH2 0x21B JUMPI PUSH1 0x0 DUP1 REVERT JUMPDEST POP PUSH2 0x12D PUSH2 0x6E4 JUMP JUMPDEST CALLVALUE DUP1 ISZERO PUSH2 0x230 JUMPI PUSH1 0x0 DUP1 REVERT JUMPDEST POP PUSH2 0x12D PUSH2 0x23F CALLDATASIZE PUSH1 0x4 PUSH2 0xE14 JUMP JUMPDEST PUSH2 0x6EF JUMP JUMPDEST CALLVALUE DUP1 ISZERO PUSH2 0x250 JUMPI PUSH1 0x0 DUP1 REVERT JUMPDEST POP PUSH2 0xF7 PUSH2 0x80E JUMP JUMPDEST PUSH1 0xD SLOAD DUP2 JUMP JUMPDEST PUSH1 0x0 SLOAD PUSH1 0x1 PUSH1 0x1 PUSH1 0xA0 SHL SUB AND CALLER EQ PUSH2 0x276 JUMPI PUSH1 0x0 DUP1 REVERT JUMPDEST PUSH1 0x1 PUSH1 0x1 PUSH1 0xA0 SHL SUB DUP3 AND PUSH1 0x0 SWAP1 DUP2 MSTORE PUSH1 0x8 PUSH1 0x20 MSTORE PUSH1 0x40 SWAP1 KECCAK256 SLOAD ISZERO PUSH2 0x29D JUMPI PUSH2 0x29D DUP3 PUSH2 0x814 JUMP JUMPDEST PUSH1 0x0 DUP2 GT DUP1 ISZERO PUSH2 0x2C3 JUMPI POP PUSH1 0x1 PUSH1 0x1 PUSH1 0xA0 SHL SUB DUP3 AND PUSH1 0x0 SWAP1 DUP2 MSTORE PUSH1 0x8 PUSH1 0x20 MSTORE PUSH1 0x40 SWAP1 KECCAK256 SLOAD ISZERO JUMPDEST ISZERO PUSH2 0x2D6 JUMPI PUSH2 0x2D1 DUP3 PUSH2 0x93F JUMP JUMPDEST PUSH2 0x309 JUMP JUMPDEST DUP1 ISZERO DUP1 ISZERO PUSH2 0x2FB JUMPI POP PUSH1 0x1 PUSH1 0x1 PUSH1 0xA0 SHL SUB DUP3 AND PUSH1 0x0 SWAP1 DUP2 MSTORE PUSH1 0x8 PUSH1 0x20 MSTORE PUSH1 0x40 SWAP1 KECCAK256 SLOAD ISZERO ISZERO JUMPDEST ISZERO PUSH2 0x309 JUMPI PUSH2 0x309 DUP3 PUSH2 0x9A0 JUMP JUMPDEST PUSH1 0x1 PUSH1 0x1 PUSH1 0xA0 SHL SUB DUP3 AND PUSH1 0x0 SWAP1 DUP2 MSTORE PUSH1 0x8 PUSH1 0x20 MSTORE PUSH1 0x40 SWAP1 KECCAK256 SLOAD PUSH1 0x9 SLOAD PUSH2 0x33A SWAP2 DUP4 SWAP2 PUSH2 0x334 SWAP2 PUSH2 0xAED JUMP JUMPDEST SWAP1 PUSH2 0xB00 JUMP JUMPDEST PUSH1 0x9 SSTORE PUSH1 0x1 PUSH1 0x1 PUSH1 0xA0 SHL SUB DUP3 AND PUSH1 0x0 SWAP1 DUP2 MSTORE PUSH1 0x8 PUSH1 0x20 MSTORE PUSH1 0x40 SWAP1 KECCAK256 DUP2 SWAP1 SSTORE PUSH2 0x361 DUP2 PUSH2 0xB0C JUMP JUMPDEST PUSH1 0x1 PUSH1 0x1 PUSH1 0xA0 SHL SUB SWAP1 SWAP3 AND PUSH1 0x0 SWAP1 DUP2 MSTORE PUSH1 0x8 PUSH1 0x20 MSTORE PUSH1 0x40 SWAP1 KECCAK256 PUSH1 0x1 ADD SWAP2 SWAP1 SWAP2 SSTORE POP JUMP JUMPDEST PUSH1 0x1 PUSH1 0x1 PUSH1 0xA0 SHL SUB DUP2 AND PUSH1 0x0 SWAP1 DUP2 MSTORE PUSH1 0x8 PUSH1 0x20 MSTORE PUSH1 0x40 DUP2 KECCAK256 SLOAD PUSH2 0x3A9 JUMPI POP PUSH1 0x0 PUSH2 0x40B JUMP JUMPDEST PUSH1 0x1 PUSH1 0x1 PUSH1 0xA0 SHL SUB DUP3 AND PUSH1 0x0 SWAP1 DUP2 MSTORE PUSH1 0x8 PUSH1 0x20 MSTORE PUSH1 0x40 DUP2 KECCAK256 SLOAD PUSH2 0x3CB SWAP1 PUSH2 0xB0C JUMP JUMPDEST PUSH1 0x1 PUSH1 0x1 PUSH1 0xA0 SHL SUB DUP5 AND PUSH1 0x0 SWAP1 DUP2 MSTORE PUSH1 0x8 PUSH1 0x20 MSTORE PUSH1 0x40 SWAP1 KECCAK256 PUSH1 0x1 ADD SLOAD SWAP1 SWAP2 POP DUP1 DUP3 GT PUSH2 0x3FC JUMPI PUSH1 0x0 SWAP3 POP POP POP PUSH2 0x40B JUMP JUMPDEST PUSH2 0x406 DUP3 DUP3 PUSH2 0xAED JUMP JUMPDEST SWAP3 POP POP POP JUMPDEST SWAP2 SWAP1 POP JUMP JUMPDEST PUSH1 0x0 SLOAD PUSH1 0x1 PUSH1 0x1 PUSH1 0xA0 SHL SUB AND CALLER EQ PUSH2 0x427 JUMPI PUSH1 0x0 DUP1 REVERT JUMPDEST PUSH1 0xE SWAP2 SWAP1 SWAP2 SSTORE PUSH1 0xF SSTORE JUMP JUMPDEST PUSH1 0x9 SLOAD DUP2 JUMP JUMPDEST PUSH1 0xF SLOAD DUP2 JUMP JUMPDEST PUSH1 0xA SLOAD DUP2 JUMP JUMPDEST PUSH1 0x8 PUSH1 0x20 MSTORE PUSH1 0x0 SWAP1 DUP2 MSTORE PUSH1 0x40 SWAP1 KECCAK256 DUP1 SLOAD PUSH1 0x1 DUP3 ADD SLOAD PUSH1 0x2 SWAP1 SWAP3 ADD SLOAD SWAP1 SWAP2 SWAP1 DUP4 JUMP JUMPDEST PUSH1 0x0 SLOAD PUSH1 0x1 PUSH1 0x1 PUSH1 0xA0 SHL SUB AND CALLER EQ PUSH2 0x47C JUMPI PUSH1 0x0 DUP1 REVERT JUMPDEST PUSH1 0x1 SLOAD PUSH1 0x40 MLOAD PUSH4 0x70A08231 PUSH1 0xE0 SHL DUP2 MSTORE PUSH1 0x0 SWAP2 PUSH1 0x1 PUSH1 0x1 PUSH1 0xA0 SHL SUB AND SWAP1 PUSH4 0x70A08231 SWAP1 PUSH2 0x4AD SWAP1 ADDRESS SWAP1 PUSH1 0x4 ADD PUSH2 0xE65 JUMP JUMPDEST PUSH1 0x20 PUSH1 0x40 MLOAD DUP1 DUP4 SUB DUP2 DUP7 DUP1 EXTCODESIZE ISZERO DUP1 ISZERO PUSH2 0x4C5 JUMPI PUSH1 0x0 DUP1 REVERT JUMPDEST POP GAS STATICCALL ISZERO DUP1 ISZERO PUSH2 0x4D9 JUMPI RETURNDATASIZE PUSH1 0x0 DUP1 RETURNDATACOPY RETURNDATASIZE PUSH1 0x0 REVERT JUMPDEST POP POP POP POP PUSH1 0x40 MLOAD RETURNDATASIZE PUSH1 0x1F NOT PUSH1 0x1F DUP3 ADD AND DUP3 ADD DUP1 PUSH1 0x40 MSTORE POP DUP2 ADD SWAP1 PUSH2 0x4FD SWAP2 SWAP1 PUSH2 0xE2C JUMP JUMPDEST PUSH1 0x40 DUP1 MLOAD PUSH1 0x2 DUP1 DUP3 MSTORE PUSH1 0x60 DUP3 ADD DUP4 MSTORE SWAP3 SWAP4 POP PUSH1 0x0 SWAP3 SWAP1 SWAP2 PUSH1 0x20 DUP4 ADD SWAP1 DUP1 CALLDATASIZE DUP4 CALLDATACOPY POP POP PUSH1 0x2 SLOAD DUP3 MLOAD SWAP3 SWAP4 POP PUSH1 0x1 PUSH1 0x1 PUSH1 0xA0 SHL SUB AND SWAP2 DUP4 SWAP2 POP PUSH1 0x0 SWAP1 PUSH2 0x551 JUMPI PUSH4 0x4E487B71 PUSH1 0xE0 SHL PUSH1 0x0 MSTORE PUSH1 0x32 PUSH1 0x4 MSTORE PUSH1 0x24 PUSH1 0x0 REVERT JUMPDEST PUSH1 0x1 PUSH1 0x1 PUSH1 0xA0 SHL SUB SWAP3 DUP4 AND PUSH1 0x20 SWAP2 DUP3 MUL SWAP3 SWAP1 SWAP3 ADD ADD MSTORE PUSH1 0x1 DUP1 SLOAD DUP4 MLOAD SWAP3 AND SWAP2 DUP4 SWAP2 SWAP1 DUP2 LT PUSH2 0x58F JUMPI PUSH4 0x4E487B71 PUSH1 0xE0 SHL PUSH1 0x0 MSTORE PUSH1 0x32 PUSH1 0x4 MSTORE PUSH1 0x24 PUSH1 0x0 REVERT JUMPDEST PUSH1 0x1 PUSH1 0x1 PUSH1 0xA0 SHL SUB SWAP3 DUP4 AND PUSH1 0x20 SWAP2 DUP3 MUL SWAP3 SWAP1 SWAP3 ADD ADD MSTORE PUSH1 0x3 SLOAD PUSH1 0x40 MLOAD PUSH4 0xB6F9DE95 PUSH1 0xE0 SHL DUP2 MSTORE SWAP2 AND SWAP1 PUSH4 0xB6F9DE95 SWAP1 CALLVALUE SWAP1 PUSH2 0x5D5 SWAP1 PUSH1 0x0 SWAP1 DUP7 SWAP1 ADDRESS SWAP1 TIMESTAMP SWAP1 PUSH1 0x4 ADD PUSH2 0xE92 JUMP JUMPDEST PUSH1 0x0 PUSH1 0x40 MLOAD DUP1 DUP4 SUB DUP2 DUP6 DUP9 DUP1 EXTCODESIZE ISZERO DUP1 ISZERO PUSH2 0x5EE JUMPI PUSH1 0x0 DUP1 REVERT JUMPDEST POP GAS CALL ISZERO DUP1 ISZERO PUSH2 0x602 JUMPI RETURNDATASIZE PUSH1 0x0 DUP1 RETURNDATACOPY RETURNDATASIZE PUSH1 0x0 REVERT JUMPDEST POP POP PUSH1 0x1 SLOAD PUSH1 0x40 MLOAD PUSH4 0x70A08231 PUSH1 0xE0 SHL DUP2 MSTORE PUSH1 0x0 SWAP5 POP PUSH2 0x696 SWAP4 POP DUP7 SWAP3 POP PUSH1 0x1 PUSH1 0x1 PUSH1 0xA0 SHL SUB SWAP1 SWAP2 AND SWAP1 PUSH4 0x70A08231 SWAP1 PUSH2 0x640 SWAP1 ADDRESS SWAP1 PUSH1 0x4 ADD PUSH2 0xE65 JUMP JUMPDEST PUSH1 0x20 PUSH1 0x40 MLOAD DUP1 DUP4 SUB DUP2 DUP7 DUP1 EXTCODESIZE ISZERO DUP1 ISZERO PUSH2 0x658 JUMPI PUSH1 0x0 DUP1 REVERT JUMPDEST POP GAS STATICCALL ISZERO DUP1 ISZERO PUSH2 0x66C JUMPI RETURNDATASIZE PUSH1 0x0 DUP1 RETURNDATACOPY RETURNDATASIZE PUSH1 0x0 REVERT JUMPDEST POP POP POP POP PUSH1 0x40 MLOAD RETURNDATASIZE PUSH1 0x1F NOT PUSH1 0x1F DUP3 ADD AND DUP3 ADD DUP1 PUSH1 0x40 MSTORE POP DUP2 ADD SWAP1 PUSH2 0x690 SWAP2 SWAP1 PUSH2 0xE2C JUMP JUMPDEST SWAP1 PUSH2 0xAED JUMP JUMPDEST PUSH1 0xA SLOAD SWAP1 SWAP2 POP PUSH2 0x6A6 SWAP1 DUP3 PUSH2 0xB00 JUMP JUMPDEST PUSH1 0xA SSTORE PUSH1 0x9 SLOAD PUSH1 0xD SLOAD PUSH2 0x6D0 SWAP2 PUSH2 0x6C7 SWAP2 PUSH2 0x6C1 SWAP1 DUP6 PUSH2 0xB2F JUMP JUMPDEST SWAP1 PUSH2 0xB3B JUMP JUMPDEST PUSH1 0xC SLOAD SWAP1 PUSH2 0xB00 JUMP JUMPDEST PUSH1 0xC SSTORE POP POP POP JUMP JUMPDEST PUSH1 0xC SLOAD DUP2 JUMP JUMPDEST PUSH1 0xB SLOAD DUP2 JUMP JUMPDEST PUSH2 0x6ED CALLER PUSH2 0x814 JUMP JUMPDEST JUMP JUMPDEST PUSH1 0x0 SLOAD PUSH1 0x1 PUSH1 0x1 PUSH1 0xA0 SHL SUB AND CALLER EQ PUSH2 0x706 JUMPI PUSH1 0x0 DUP1 REVERT JUMPDEST PUSH1 0x5 SLOAD DUP1 PUSH2 0x714 JUMPI POP PUSH2 0x80B JUMP JUMPDEST PUSH1 0x0 DUP1 GAS SWAP1 POP PUSH1 0x0 JUMPDEST DUP5 DUP4 LT DUP1 ISZERO PUSH2 0x72B JUMPI POP DUP4 DUP2 LT JUMPDEST ISZERO PUSH2 0x806 JUMPI DUP4 PUSH1 0x10 SLOAD LT PUSH2 0x73F JUMPI PUSH1 0x0 PUSH1 0x10 SSTORE JUMPDEST PUSH2 0x77F PUSH1 0x5 PUSH1 0x10 SLOAD DUP2 SLOAD DUP2 LT PUSH2 0x765 JUMPI PUSH4 0x4E487B71 PUSH1 0xE0 SHL PUSH1 0x0 MSTORE PUSH1 0x32 PUSH1 0x4 MSTORE PUSH1 0x24 PUSH1 0x0 REVERT JUMPDEST PUSH1 0x0 SWAP2 DUP3 MSTORE PUSH1 0x20 SWAP1 SWAP2 KECCAK256 ADD SLOAD PUSH1 0x1 PUSH1 0x1 PUSH1 0xA0 SHL SUB AND PUSH2 0xB47 JUMP JUMPDEST ISZERO PUSH2 0x7C4 JUMPI PUSH2 0x7C4 PUSH1 0x5 PUSH1 0x10 SLOAD DUP2 SLOAD DUP2 LT PUSH2 0x7AA JUMPI PUSH4 0x4E487B71 PUSH1 0xE0 SHL PUSH1 0x0 MSTORE PUSH1 0x32 PUSH1 0x4 MSTORE PUSH1 0x24 PUSH1 0x0 REVERT JUMPDEST PUSH1 0x0 SWAP2 DUP3 MSTORE PUSH1 0x20 SWAP1 SWAP2 KECCAK256 ADD SLOAD PUSH1 0x1 PUSH1 0x1 PUSH1 0xA0 SHL SUB AND PUSH2 0x814 JUMP JUMPDEST PUSH2 0x7D9 PUSH2 0x7D2 GAS DUP5 SWAP1 PUSH2 0xAED JUMP JUMPDEST DUP5 SWAP1 PUSH2 0xB00 JUMP JUMPDEST SWAP3 POP GAS PUSH1 0x10 DUP1 SLOAD SWAP2 SWAP4 POP PUSH1 0x0 PUSH2 0x7EE DUP4 PUSH2 0xF88 JUMP JUMPDEST SWAP2 SWAP1 POP SSTORE POP DUP1 DUP1 PUSH2 0x7FE SWAP1 PUSH2 0xF88 JUMP JUMPDEST SWAP2 POP POP PUSH2 0x71D JUMP JUMPDEST POP POP POP POP JUMPDEST POP JUMP JUMPDEST PUSH1 0xE SLOAD DUP2 JUMP JUMPDEST PUSH1 0x1 PUSH1 0x1 PUSH1 0xA0 SHL SUB DUP2 AND PUSH1 0x0 SWAP1 DUP2 MSTORE PUSH1 0x8 PUSH1 0x20 MSTORE PUSH1 0x40 SWAP1 KECCAK256 SLOAD PUSH2 0x836 JUMPI PUSH2 0x80B JUMP JUMPDEST PUSH1 0x0 PUSH2 0x841 DUP3 PUSH2 0x384 JUMP JUMPDEST SWAP1 POP DUP1 ISZERO PUSH2 0x93B JUMPI PUSH1 0xB SLOAD PUSH2 0x856 SWAP1 DUP3 PUSH2 0xB00 JUMP JUMPDEST PUSH1 0xB SSTORE PUSH1 0x1 SLOAD PUSH1 0x40 MLOAD PUSH4 0xA9059CBB PUSH1 0xE0 SHL DUP2 MSTORE PUSH1 0x1 PUSH1 0x1 PUSH1 0xA0 SHL SUB SWAP1 SWAP2 AND SWAP1 PUSH4 0xA9059CBB SWAP1 PUSH2 0x88B SWAP1 DUP6 SWAP1 DUP6 SWAP1 PUSH1 0x4 ADD PUSH2 0xE79 JUMP JUMPDEST PUSH1 0x20 PUSH1 0x40 MLOAD DUP1 DUP4 SUB DUP2 PUSH1 0x0 DUP8 DUP1 EXTCODESIZE ISZERO DUP1 ISZERO PUSH2 0x8A5 JUMPI PUSH1 0x0 DUP1 REVERT JUMPDEST POP GAS CALL ISZERO DUP1 ISZERO PUSH2 0x8B9 JUMPI RETURNDATASIZE PUSH1 0x0 DUP1 RETURNDATACOPY RETURNDATASIZE PUSH1 0x0 REVERT JUMPDEST POP POP POP POP PUSH1 0x40 MLOAD RETURNDATASIZE PUSH1 0x1F NOT PUSH1 0x1F DUP3 ADD AND DUP3 ADD DUP1 PUSH1 0x40 MSTORE POP DUP2 ADD SWAP1 PUSH2 0x8DD SWAP2 SWAP1 PUSH2 0xDF4 JUMP JUMPDEST POP PUSH1 0x1 PUSH1 0x1 PUSH1 0xA0 SHL SUB DUP3 AND PUSH1 0x0 SWAP1 DUP2 MSTORE PUSH1 0x7 PUSH1 0x20 SWAP1 DUP2 MSTORE PUSH1 0x40 DUP1 DUP4 KECCAK256 TIMESTAMP SWAP1 SSTORE PUSH1 0x8 SWAP1 SWAP2 MSTORE SWAP1 KECCAK256 PUSH1 0x2 ADD SLOAD PUSH2 0x911 SWAP1 DUP3 PUSH2 0xB00 JUMP JUMPDEST PUSH1 0x1 PUSH1 0x1 PUSH1 0xA0 SHL SUB DUP4 AND PUSH1 0x0 SWAP1 DUP2 MSTORE PUSH1 0x8 PUSH1 0x20 MSTORE PUSH1 0x40 SWAP1 KECCAK256 PUSH1 0x2 DUP2 ADD SWAP2 SWAP1 SWAP2 SSTORE SLOAD PUSH2 0x361 SWAP1 PUSH2 0xB0C JUMP JUMPDEST POP POP JUMP JUMPDEST PUSH1 0x5 DUP1 SLOAD PUSH1 0x1 PUSH1 0x1 PUSH1 0xA0 SHL SUB SWAP1 SWAP3 AND PUSH1 0x0 DUP2 DUP2 MSTORE PUSH1 0x6 PUSH1 0x20 MSTORE PUSH1 0x40 DUP2 KECCAK256 DUP5 SWAP1 SSTORE PUSH1 0x1 DUP5 ADD DUP4 SSTORE SWAP2 SWAP1 SWAP2 MSTORE PUSH32 0x36B6384B5ECA791C62761152D0C79BB0604C104A5FB6F4EB0703F3154BB3DB0 SWAP1 SWAP2 ADD DUP1 SLOAD PUSH1 0x1 PUSH1 0x1 PUSH1 0xA0 SHL SUB NOT AND SWAP1 SWAP2 OR SWAP1 SSTORE JUMP JUMPDEST PUSH1 0x5 DUP1 SLOAD PUSH2 0x9B0 SWAP1 PUSH1 0x1 SWAP1 PUSH2 0xF71 JUMP JUMPDEST DUP2 SLOAD DUP2 LT PUSH2 0x9CE JUMPI PUSH4 0x4E487B71 PUSH1 0xE0 SHL PUSH1 0x0 MSTORE PUSH1 0x32 PUSH1 0x4 MSTORE PUSH1 0x24 PUSH1 0x0 REVERT JUMPDEST PUSH1 0x0 SWAP2 DUP3 MSTORE PUSH1 0x20 DUP1 DUP4 KECCAK256 SWAP1 SWAP2 ADD SLOAD PUSH1 0x1 PUSH1 0x1 PUSH1 0xA0 SHL SUB DUP5 DUP2 AND DUP5 MSTORE PUSH1 0x6 SWAP1 SWAP3 MSTORE PUSH1 0x40 SWAP1 SWAP3 KECCAK256 SLOAD PUSH1 0x5 DUP1 SLOAD SWAP3 SWAP1 SWAP4 AND SWAP3 SWAP2 DUP2 LT PUSH2 0xA1A JUMPI PUSH4 0x4E487B71 PUSH1 0xE0 SHL PUSH1 0x0 MSTORE PUSH1 0x32 PUSH1 0x4 MSTORE PUSH1 0x24 PUSH1 0x0 REVERT JUMPDEST PUSH1 0x0 SWAP2 DUP3 MSTORE PUSH1 0x20 DUP1 DUP4 KECCAK256 SWAP2 SWAP1 SWAP2 ADD DUP1 SLOAD PUSH1 0x1 PUSH1 0x1 PUSH1 0xA0 SHL SUB NOT AND PUSH1 0x1 PUSH1 0x1 PUSH1 0xA0 SHL SUB SWAP5 DUP6 AND OR SWAP1 SSTORE SWAP2 DUP4 AND DUP2 MSTORE PUSH1 0x6 SWAP2 DUP3 SWAP1 MSTORE PUSH1 0x40 DUP2 KECCAK256 SLOAD PUSH1 0x5 DUP1 SLOAD SWAP2 SWAP4 SWAP3 SWAP2 PUSH2 0xA66 SWAP1 PUSH1 0x1 SWAP1 PUSH2 0xF71 JUMP JUMPDEST DUP2 SLOAD DUP2 LT PUSH2 0xA84 JUMPI PUSH4 0x4E487B71 PUSH1 0xE0 SHL PUSH1 0x0 MSTORE PUSH1 0x32 PUSH1 0x4 MSTORE PUSH1 0x24 PUSH1 0x0 REVERT JUMPDEST PUSH1 0x0 SWAP2 DUP3 MSTORE PUSH1 0x20 DUP1 DUP4 KECCAK256 SWAP1 SWAP2 ADD SLOAD PUSH1 0x1 PUSH1 0x1 PUSH1 0xA0 SHL SUB AND DUP4 MSTORE DUP3 ADD SWAP3 SWAP1 SWAP3 MSTORE PUSH1 0x40 ADD SWAP1 KECCAK256 SSTORE PUSH1 0x5 DUP1 SLOAD DUP1 PUSH2 0xAC8 JUMPI PUSH4 0x4E487B71 PUSH1 0xE0 SHL PUSH1 0x0 MSTORE PUSH1 0x31 PUSH1 0x4 MSTORE PUSH1 0x24 PUSH1 0x0 REVERT JUMPDEST PUSH1 0x0 DUP3 DUP2 MSTORE PUSH1 0x20 SWAP1 KECCAK256 DUP2 ADD PUSH1 0x0 NOT SWAP1 DUP2 ADD DUP1 SLOAD PUSH1 0x1 PUSH1 0x1 PUSH1 0xA0 SHL SUB NOT AND SWAP1 SSTORE ADD SWAP1 SSTORE POP JUMP JUMPDEST PUSH1 0x0 PUSH2 0xAF9 DUP3 DUP5 PUSH2 0xF71 JUMP JUMPDEST SWAP4 SWAP3 POP POP POP JUMP JUMPDEST PUSH1 0x0 PUSH2 0xAF9 DUP3 DUP5 PUSH2 0xF1A JUMP JUMPDEST PUSH1 0x0 PUSH2 0xB29 PUSH1 0xD SLOAD PUSH2 0x6C1 PUSH1 0xC SLOAD DUP6 PUSH2 0xB2F SWAP1 SWAP2 SWAP1 PUSH4 0xFFFFFFFF AND JUMP JUMPDEST SWAP3 SWAP2 POP POP JUMP JUMPDEST PUSH1 0x0 PUSH2 0xAF9 DUP3 DUP5 PUSH2 0xF52 JUMP JUMPDEST PUSH1 0x0 PUSH2 0xAF9 DUP3 DUP5 PUSH2 0xF32 JUMP JUMPDEST PUSH1 0xE SLOAD PUSH1 0x1 PUSH1 0x1 PUSH1 0xA0 SHL SUB DUP3 AND PUSH1 0x0 SWAP1 DUP2 MSTORE PUSH1 0x7 PUSH1 0x20 MSTORE PUSH1 0x40 DUP2 KECCAK256 SLOAD SWAP1 SWAP2 TIMESTAMP SWAP2 PUSH2 0xB71 SWAP2 SWAP1 PUSH2 0xF1A JUMP JUMPDEST LT DUP1 ISZERO PUSH2 0xB87 JUMPI POP PUSH1 0xF SLOAD PUSH2 0xB85 DUP4 PUSH2 0x384 JUMP JUMPDEST GT JUMPDEST DUP1 ISZERO PUSH2 0xB29 JUMPI POP PUSH1 0x4 DUP1 SLOAD PUSH1 0x40 DUP1 MLOAD PUSH4 0x2846B951 PUSH1 0xE0 SHL DUP2 MSTORE SWAP1 MLOAD PUSH1 0x1 PUSH1 0x1 PUSH1 0xA0 SHL SUB SWAP1 SWAP3 AND SWAP3 PUSH4 0x2846B951 SWAP3 DUP3 DUP3 ADD SWAP3 PUSH1 0x20 SWAP3 SWAP1 DUP3 SWAP1 SUB ADD DUP2 DUP7 DUP1 EXTCODESIZE ISZERO DUP1 ISZERO PUSH2 0xBD0 JUMPI PUSH1 0x0 DUP1 REVERT JUMPDEST POP GAS STATICCALL ISZERO DUP1 ISZERO PUSH2 0xBE4 JUMPI RETURNDATASIZE PUSH1 0x0 DUP1 RETURNDATACOPY RETURNDATASIZE PUSH1 0x0 REVERT JUMPDEST POP POP POP POP PUSH1 0x40 MLOAD RETURNDATASIZE PUSH1 0x1F NOT PUSH1 0x1F DUP3 ADD AND DUP3 ADD DUP1 PUSH1 0x40 MSTORE POP DUP2 ADD SWAP1 PUSH2 0xC08 SWAP2 SWAP1 PUSH2 0xDF4 JUMP JUMPDEST ISZERO DUP1 PUSH2 0xB29 JUMPI POP PUSH1 0x4 DUP1 SLOAD PUSH1 0x40 DUP1 MLOAD PUSH4 0x2846B951 PUSH1 0xE0 SHL DUP2 MSTORE SWAP1 MLOAD PUSH1 0x1 PUSH1 0x1 PUSH1 0xA0 SHL SUB SWAP1 SWAP3 AND SWAP3 PUSH4 0x2846B951 SWAP3 DUP3 DUP3 ADD SWAP3 PUSH1 0x20 SWAP3 SWAP1 DUP3 SWAP1 SUB ADD DUP2 DUP7 DUP1 EXTCODESIZE ISZERO DUP1 ISZERO PUSH2 0xC51 JUMPI PUSH1 0x0 DUP1 REVERT JUMPDEST POP GAS STATICCALL ISZERO DUP1 ISZERO PUSH2 0xC65 JUMPI RETURNDATASIZE PUSH1 0x0 DUP1 RETURNDATACOPY RETURNDATASIZE PUSH1 0x0 REVERT JUMPDEST POP POP POP POP PUSH1 0x40 MLOAD RETURNDATASIZE PUSH1 0x1F NOT PUSH1 0x1F DUP3 ADD AND DUP3 ADD DUP1 PUSH1 0x40 MSTORE POP DUP2 ADD SWAP1 PUSH2 0xC89 SWAP2 SWAP1 PUSH2 0xDF4 JUMP JUMPDEST DUP1 ISZERO PUSH2 0xB29 JUMPI POP PUSH1 0x4 DUP1 SLOAD PUSH1 0x40 DUP1 MLOAD PUSH4 0x23C53EE3 PUSH1 0xE2 SHL DUP2 MSTORE SWAP1 MLOAD PUSH1 0x1 PUSH1 0x1 PUSH1 0xA0 SHL SUB SWAP1 SWAP3 AND SWAP3 PUSH4 0x8F14FB8C SWAP3 DUP3 DUP3 ADD SWAP3 PUSH1 0x20 SWAP3 SWAP1 DUP3 SWAP1 SUB ADD DUP2 DUP7 DUP1 EXTCODESIZE ISZERO DUP1 ISZERO PUSH2 0xCD2 JUMPI PUSH1 0x0 DUP1 REVERT JUMPDEST POP GAS STATICCALL ISZERO DUP1 ISZERO PUSH2 0xCE6 JUMPI RETURNDATASIZE PUSH1 0x0 DUP1 RETURNDATACOPY RETURNDATASIZE PUSH1 0x0 REVERT JUMPDEST POP POP POP POP PUSH1 0x40 MLOAD RETURNDATASIZE PUSH1 0x1F NOT PUSH1 0x1F DUP3 ADD AND DUP3 ADD DUP1 PUSH1 0x40 MSTORE POP DUP2 ADD SWAP1 PUSH2 0xD0A SWAP2 SWAP1 PUSH2 0xE2C JUMP JUMPDEST PUSH1 0x4 DUP1 SLOAD PUSH1 0x40 MLOAD PUSH4 0x30355BA9 PUSH1 0xE1 SHL DUP2 MSTORE PUSH1 0x1 PUSH1 0x1 PUSH1 0xA0 SHL SUB SWAP1 SWAP2 AND SWAP2 PUSH4 0x606AB752 SWAP2 PUSH2 0xD39 SWAP2 DUP8 SWAP2 ADD PUSH2 0xE65 JUMP JUMPDEST PUSH1 0x20 PUSH1 0x40 MLOAD DUP1 DUP4 SUB DUP2 DUP7 DUP1 EXTCODESIZE ISZERO DUP1 ISZERO PUSH2 0xD51 JUMPI PUSH1 0x0 DUP1 REVERT JUMPDEST POP GAS STATICCALL ISZERO DUP1 ISZERO PUSH2 0xD65 JUMPI RETURNDATASIZE PUSH1 0x0 DUP1 RETURNDATACOPY RETURNDATASIZE PUSH1 0x0 REVERT JUMPDEST POP POP POP POP PUSH1 0x40 MLOAD RETURNDATASIZE PUSH1 0x1F NOT PUSH1 0x1F DUP3 ADD AND DUP3 ADD DUP1 PUSH1 0x40 MSTORE POP DUP2 ADD SWAP1 PUSH2 0xD89 SWAP2 SWAP1 PUSH2 0xE2C JUMP JUMPDEST PUSH2 0xD93 SWAP1 TIMESTAMP PUSH2 0xF71 JUMP JUMPDEST LT SWAP3 SWAP2 POP POP JUMP JUMPDEST DUP1 CALLDATALOAD PUSH1 0x1 PUSH1 0x1 PUSH1 0xA0 SHL SUB DUP2 AND DUP2 EQ PUSH2 0x40B JUMPI PUSH1 0x0 DUP1 REVERT JUMPDEST PUSH1 0x0 PUSH1 0x20 DUP3 DUP5 SUB SLT ISZERO PUSH2 0xDC2 JUMPI DUP1 DUP2 REVERT JUMPDEST PUSH2 0xAF9 DUP3 PUSH2 0xD9A JUMP JUMPDEST PUSH1 0x0 DUP1 PUSH1 0x40 DUP4 DUP6 SUB SLT ISZERO PUSH2 0xDDD JUMPI DUP1 DUP2 REVERT JUMPDEST PUSH2 0xDE6 DUP4 PUSH2 0xD9A JUMP JUMPDEST SWAP5 PUSH1 0x20 SWAP4 SWAP1 SWAP4 ADD CALLDATALOAD SWAP4 POP POP POP JUMP JUMPDEST PUSH1 0x0 PUSH1 0x20 DUP3 DUP5 SUB SLT ISZERO PUSH2 0xE05 JUMPI DUP1 DUP2 REVERT JUMPDEST DUP2 MLOAD DUP1 ISZERO ISZERO DUP2 EQ PUSH2 0xAF9 JUMPI DUP2 DUP3 REVERT JUMPDEST PUSH1 0x0 PUSH1 0x20 DUP3 DUP5 SUB SLT ISZERO PUSH2 0xE25 JUMPI DUP1 DUP2 REVERT JUMPDEST POP CALLDATALOAD SWAP2 SWAP1 POP JUMP JUMPDEST PUSH1 0x0 PUSH1 0x20 DUP3 DUP5 SUB SLT ISZERO PUSH2 0xE3D JUMPI DUP1 DUP2 REVERT JUMPDEST POP MLOAD SWAP2 SWAP1 POP JUMP JUMPDEST PUSH1 0x0 DUP1 PUSH1 0x40 DUP4 DUP6 SUB SLT ISZERO PUSH2 0xE56 JUMPI DUP2 DUP3 REVERT JUMPDEST POP POP DUP1 CALLDATALOAD SWAP3 PUSH1 0x20 SWAP1 SWAP2 ADD CALLDATALOAD SWAP2 POP JUMP JUMPDEST PUSH1 0x1 PUSH1 0x1 PUSH1 0xA0 SHL SUB SWAP2 SWAP1 SWAP2 AND DUP2 MSTORE PUSH1 0x20 ADD SWAP1 JUMP JUMPDEST PUSH1 0x1 PUSH1 0x1 PUSH1 0xA0 SHL SUB SWAP3 SWAP1 SWAP3 AND DUP3 MSTORE PUSH1 0x20 DUP3 ADD MSTORE PUSH1 0x40 ADD SWAP1 JUMP JUMPDEST PUSH1 0x0 PUSH1 0x80 DUP3 ADD DUP7 DUP4 MSTORE PUSH1 0x20 PUSH1 0x80 DUP2 DUP6 ADD MSTORE DUP2 DUP8 MLOAD DUP1 DUP5 MSTORE PUSH1 0xA0 DUP7 ADD SWAP2 POP DUP3 DUP10 ADD SWAP4 POP DUP5 JUMPDEST DUP2 DUP2 LT ISZERO PUSH2 0xEDB JUMPI DUP5 MLOAD PUSH1 0x1 PUSH1 0x1 PUSH1 0xA0 SHL SUB AND DUP4 MSTORE SWAP4 DUP4 ADD SWAP4 SWAP2 DUP4 ADD SWAP2 PUSH1 0x1 ADD PUSH2 0xEB6 JUMP JUMPDEST POP POP PUSH1 0x1 PUSH1 0x1 PUSH1 0xA0 SHL SUB SWAP7 SWAP1 SWAP7 AND PUSH1 0x40 DUP6 ADD MSTORE POP POP POP PUSH1 0x60 ADD MSTORE SWAP3 SWAP2 POP POP JUMP JUMPDEST SWAP1 DUP2 MSTORE PUSH1 0x20 ADD SWAP1 JUMP JUMPDEST SWAP3 DUP4 MSTORE PUSH1 0x20 DUP4 ADD SWAP2 SWAP1 SWAP2 MSTORE PUSH1 0x40 DUP3 ADD MSTORE PUSH1 0x60 ADD SWAP1 JUMP JUMPDEST PUSH1 0x0 DUP3 NOT DUP3 GT ISZERO PUSH2 0xF2D JUMPI PUSH2 0xF2D PUSH2 0xFA3 JUMP JUMPDEST POP ADD SWAP1 JUMP JUMPDEST PUSH1 0x0 DUP3 PUSH2 0xF4D JUMPI PUSH4 0x4E487B71 PUSH1 0xE0 SHL DUP2 MSTORE PUSH1 0x12 PUSH1 0x4 MSTORE PUSH1 0x24 DUP2 REVERT JUMPDEST POP DIV SWAP1 JUMP JUMPDEST PUSH1 0x0 DUP2 PUSH1 0x0 NOT DIV DUP4 GT DUP3 ISZERO ISZERO AND ISZERO PUSH2 0xF6C JUMPI PUSH2 0xF6C PUSH2 0xFA3 JUMP JUMPDEST POP MUL SWAP1 JUMP JUMPDEST PUSH1 0x0 DUP3 DUP3 LT ISZERO PUSH2 0xF83 JUMPI PUSH2 0xF83 PUSH2 0xFA3 JUMP JUMPDEST POP SUB SWAP1 JUMP JUMPDEST PUSH1 0x0 PUSH1 0x0 NOT DUP3 EQ ISZERO PUSH2 0xF9C JUMPI PUSH2 0xF9C PUSH2 0xFA3 JUMP JUMPDEST POP PUSH1 0x1 ADD SWAP1 JUMP JUMPDEST PUSH4 0x4E487B71 PUSH1 0xE0 SHL PUSH1 0x0 MSTORE PUSH1 0x11 PUSH1 0x4 MSTORE PUSH1 0x24 PUSH1 0x0 REVERT INVALID LOG2 PUSH5 0x6970667358 0x22 SLT KECCAK256 SGT SUB 0x5E SELFDESTRUCT JUMP 0xB3 DUP15 MSTORE8 0xC5 KECCAK256 0xEB 0xBB EQ PUSH7 0xABB83251A4F9AA 0xBD PUSH2 0x2F99 0xB8 0xC5 LT PUSH30 0x8F012664736F6C6343000800003300000000000000000000000000000000 "
		},
		"gasEstimates": {
			"creation": {
				"codeDepositCost": "815800",
				"executionCost": "infinite",
				"totalCost": "infinite"
			},
			"external": {
				"claimDividend()": "infinite",
				"deposit()": "infinite",
				"dividendsPerShare()": "1095",
				"dividendsPerShareAccuracyFactor()": "1052",
				"getUnpaidEarnings(address)": "infinite",
				"minDistribution()": "1095",
				"minPeriod()": "1116",
				"process(uint256)": "infinite",
				"setDistributionCriteria(uint256,uint256)": "41122",
				"setShare(address,uint256)": "infinite",
				"shares(address)": "2953",
				"totalDistributed()": "1050",
				"totalDividends()": "1117",
				"totalShares()": "1073"
			},
			"internal": {
				"addShareholder(address)": "61795",
				"distributeDividend(address)": "infinite",
				"getCumulativeDividends(uint256)": "infinite",
				"removeShareholder(address)": "infinite",
				"shouldDistribute(address)": "infinite"
			}
		},
		"methodIdentifiers": {
			"claimDividend()": "f0fc6bca",
			"deposit()": "d0e30db0",
			"dividendsPerShare()": "e2d2e219",
			"dividendsPerShareAccuracyFactor()": "11ce023d",
			"getUnpaidEarnings(address)": "28fd3198",
			"minDistribution()": "4fab0ae8",
			"minPeriod()": "ffd49c84",
			"process(uint256)": "ffb2c479",
			"setDistributionCriteria(uint256,uint256)": "2d48e896",
			"setShare(address,uint256)": "14b6ca96",
			"shares(address)": "ce7c2ac2",
			"totalDistributed()": "efca2eed",
			"totalDividends()": "997664d7",
			"totalShares()": "3a98ef39"
		}
	},
	"abi": [
		{
			"inputs": [
				{
					"internalType": "address",
					"name": "_router",
					"type": "address"
				},
				{
					"internalType": "address",
					"name": "_tokenAddress",
					"type": "address"
				}
			],
			"stateMutability": "nonpayable",
			"type": "constructor"
		},
		{
			"inputs": [],
			"name": "claimDividend",
			"outputs": [],
			"stateMutability": "nonpayable",
			"type": "function"
		},
		{
			"inputs": [],
			"name": "deposit",
			"outputs": [],
			"stateMutability": "payable",
			"type": "function"
		},
		{
			"inputs": [],
			"name": "dividendsPerShare",
			"outputs": [
				{
					"internalType": "uint256",
					"name": "",
					"type": "uint256"
				}
			],
			"stateMutability": "view",
			"type": "function"
		},
		{
			"inputs": [],
			"name": "dividendsPerShareAccuracyFactor",
			"outputs": [
				{
					"internalType": "uint256",
					"name": "",
					"type": "uint256"
				}
			],
			"stateMutability": "view",
			"type": "function"
		},
		{
			"inputs": [
				{
					"internalType": "address",
					"name": "shareholder",
					"type": "address"
				}
			],
			"name": "getUnpaidEarnings",
			"outputs": [
				{
					"internalType": "uint256",
					"name": "",
					"type": "uint256"
				}
			],
			"stateMutability": "view",
			"type": "function"
		},
		{
			"inputs": [],
			"name": "minDistribution",
			"outputs": [
				{
					"internalType": "uint256",
					"name": "",
					"type": "uint256"
				}
			],
			"stateMutability": "view",
			"type": "function"
		},
		{
			"inputs": [],
			"name": "minPeriod",
			"outputs": [
				{
					"internalType": "uint256",
					"name": "",
					"type": "uint256"
				}
			],
			"stateMutability": "view",
			"type": "function"
		},
		{
			"inputs": [
				{
					"internalType": "uint256",
					"name": "gas",
					"type": "uint256"
				}
			],
			"name": "process",
			"outputs": [],
			"stateMutability": "nonpayable",
			"type": "function"
		},
		{
			"inputs": [
				{
					"internalType": "uint256",
					"name": "_minPeriod",
					"type": "uint256"
				},
				{
					"internalType": "uint256",
					"name": "_minDistribution",
					"type": "uint256"
				}
			],
			"name": "setDistributionCriteria",
			"outputs": [],
			"stateMutability": "nonpayable",
			"type": "function"
		},
		{
			"inputs": [
				{
					"internalType": "address",
					"name": "shareholder",
					"type": "address"
				},
				{
					"internalType": "uint256",
					"name": "amount",
					"type": "uint256"
				}
			],
			"name": "setShare",
			"outputs": [],
			"stateMutability": "nonpayable",
			"type": "function"
		},
		{
			"inputs": [
				{
					"internalType": "address",
					"name": "",
					"type": "address"
				}
			],
			"name": "shares",
			"outputs": [
				{
					"internalType": "uint256",
					"name": "amount",
					"type": "uint256"
				},
				{
					"internalType": "uint256",
					"name": "totalExcluded",
					"type": "uint256"
				},
				{
					"internalType": "uint256",
					"name": "totalRealised",
					"type": "uint256"
				}
			],
			"stateMutability": "view",
			"type": "function"
		},
		{
			"inputs": [],
			"name": "totalDistributed",
			"outputs": [
				{
					"internalType": "uint256",
					"name": "",
					"type": "uint256"
				}
			],
			"stateMutability": "view",
			"type": "function"
		},
		{
			"inputs": [],
			"name": "totalDividends",
			"outputs": [
				{
					"internalType": "uint256",
					"name": "",
					"type": "uint256"
				}
			],
			"stateMutability": "view",
			"type": "function"
		},
		{
			"inputs": [],
			"name": "totalShares",
			"outputs": [
				{
					"internalType": "uint256",
					"name": "",
					"type": "uint256"
				}
			],
			"stateMutability": "view",
			"type": "function"
		}
	]
}